{
  "_format": "hh-sol-artifact-1",
  "contractName": "VoteSmarter",
  "sourceName": "contracts/voteSmarter.sol",
  "abi": [
    {
      "inputs": [
        {
          "internalType": "address",
          "name": "_treasury",
          "type": "address"
        }
      ],
      "stateMutability": "nonpayable",
      "type": "constructor"
    },
    {
      "inputs": [],
      "name": "createPost",
      "outputs": [],
      "stateMutability": "nonpayable",
      "type": "function"
    },
    {
      "inputs": [
        {
          "internalType": "uint256",
          "name": "postId",
          "type": "uint256"
        }
      ],
      "name": "downvote",
      "outputs": [],
      "stateMutability": "payable",
      "type": "function"
    },
    {
      "inputs": [
        {
          "internalType": "uint256",
          "name": "postId",
          "type": "uint256"
        }
      ],
      "name": "flagScam",
      "outputs": [],
      "stateMutability": "nonpayable",
      "type": "function"
    },
    {
      "inputs": [],
      "name": "postCount",
      "outputs": [
        {
          "internalType": "uint256",
          "name": "",
          "type": "uint256"
        }
      ],
      "stateMutability": "view",
      "type": "function"
    },
    {
      "inputs": [
        {
          "internalType": "uint256",
          "name": "",
          "type": "uint256"
        }
      ],
      "name": "posts",
      "outputs": [
        {
          "internalType": "uint256",
          "name": "id",
          "type": "uint256"
        },
        {
          "internalType": "address",
          "name": "creator",
          "type": "address"
        },
        {
          "internalType": "uint256",
          "name": "upvotes",
          "type": "uint256"
        },
        {
          "internalType": "uint256",
          "name": "downvotes",
          "type": "uint256"
        },
        {
          "internalType": "bool",
          "name": "flagged",
          "type": "bool"
        }
      ],
      "stateMutability": "view",
      "type": "function"
    },
    {
      "inputs": [
        {
          "internalType": "uint256",
          "name": "postId",
          "type": "uint256"
        }
      ],
      "name": "refundDownvote",
      "outputs": [],
      "stateMutability": "nonpayable",
      "type": "function"
    },
    {
      "inputs": [],
      "name": "treasury",
      "outputs": [
        {
          "internalType": "address",
          "name": "",
          "type": "address"
        }
      ],
      "stateMutability": "view",
      "type": "function"
    },
    {
      "inputs": [
        {
          "internalType": "uint256",
          "name": "postId",
          "type": "uint256"
        }
      ],
      "name": "upvote",
      "outputs": [],
      "stateMutability": "payable",
      "type": "function"
    },
    {
      "inputs": [],
      "name": "getAllCreators",
      "outputs": [
        {
          "components": [
            {
              "internalType": "address",
              "name": "walletAddress",
              "type": "address"
            },
            {
              "internalType": "string",
              "name": "name",
              "type": "string"
            },
            {
              "internalType": "string",
              "name": "profilePic",
              "type": "string"
            }
          ],
          "internalType": "struct VoteSmarter.Creator[]",
          "name": "",
          "type": "tuple[]"
        }
      ],
      "stateMutability": "view",
      "type": "function"
    },
    {
      "inputs": [
        {
          "internalType": "address",
          "name": "walletAddress",
          "type": "address"
        },
        {
          "internalType": "string",
          "name": "name",
          "type": "string"
        },
        {
          "internalType": "string",
          "name": "profilePic",
          "type": "string"
        }
      ],
      "name": "createCreator",
      "outputs": [],
      "stateMutability": "nonpayable",
      "type": "function"
    },
    {
      "inputs": [
        {
          "internalType": "address",
          "name": "creator",
          "type": "address"
        }
      ],
      "name": "getPostsByCreator",
      "outputs": [
        {
          "components": [
            {
              "internalType": "uint256",
              "name": "id",
              "type": "uint256"
            },
            {
              "internalType": "address",
              "name": "creator",
              "type": "address"
            },
            {
              "internalType": "uint256",
              "name": "upvotes",
              "type": "uint256"
            },
            {
              "internalType": "uint256",
              "name": "downvotes",
              "type": "uint256"
            },
            {
              "internalType": "bool",
              "name": "flagged",
              "type": "bool"
            }
          ],
          "internalType": "struct VoteSmarter.Post[]",
          "name": "",
          "type": "tuple[]"
        }
      ],
      "stateMutability": "view",
      "type": "function"
    },
    {
      "inputs": [],
      "name": "getAllPosts",
      "outputs": [
        {
          "components": [
            {
              "internalType": "uint256",
              "name": "id",
              "type": "uint256"
            },
            {
              "internalType": "address",
              "name": "creator",
              "type": "address"
            },
            {
              "internalType": "uint256",
              "name": "upvotes",
              "type": "uint256"
            },
            {
              "internalType": "uint256",
              "name": "downvotes",
              "type": "uint256"
            },
            {
              "internalType": "bool",
              "name": "flagged",
              "type": "bool"
            }
          ],
          "internalType": "struct VoteSmarter.Post[]",
          "name": "",
          "type": "tuple[]"
        }
      ],
      "stateMutability": "view",
      "type": "function"
    },
    {
      "inputs": [
        {
          "internalType": "uint256",
          "name": "postId",
          "type": "uint256"
        }
      ],
      "name": "getPostVotes",
      "outputs": [
        {
          "internalType": "uint256",
          "name": "upvotes",
          "type": "uint256"
        },
        {
          "internalType": "uint256",
          "name": "downvotes",
          "type": "uint256"
        }
      ],
      "stateMutability": "view",
      "type": "function"
    },
    {
      "inputs": [
        {
          "internalType": "address",
          "name": "creatorAddress",
          "type": "address"
        }
      ],
      "name": "deleteCreatorAndPosts",
      "outputs": [],
      "stateMutability": "nonpayable",
      "type": "function"
    },
    {
      "inputs": [],
      "name": "voteFee",
      "outputs": [
        {
          "internalType": "uint256",
          "name": "",
          "type": "uint256"
        }
      ],
      "stateMutability": "view",
      "type": "function"
    }
  ],
  "bytecode": "0x608060405264e8d4a5100060005534801561001957600080fd5b50604051610c7a380380610c7a833981810160405281019061003b91906100e5565b80600360006101000a81548173ffffffffffffffffffffffffffffffffffffffff021916908373ffffffffffffffffffffffffffffffffffffffff16021790555050610112565b600080fd5b600073ffffffffffffffffffffffffffffffffffffffff82169050919050565b60006100b282610087565b9050919050565b6100c2816100a7565b81146100cd57600080fd5b50565b6000815190506100df816100b9565b92915050565b6000602082840312156100fb576100fa610082565b5b6000610109848285016100d0565b91505092915050565b610b59806101216000396000f3fe6080604052600436106100865760003560e01c806345612d201161005957806345612d201461013c57806361d027b3146101535780639c0ba4df1461017e578063da2b4c1e146101a7578063f31fdad4146101d257610086565b806301ddf0701461008b5780630b1e7f83146100a757806317906c2e146100e85780631ccdf91014610113575b600080fd5b6100a560048036038101906100a091906107ca565b6101ee565b005b3480156100b357600080fd5b506100ce60048036038101906100c991906107ca565b6102ca565b6040516100df959493929190610862565b60405180910390f35b3480156100f457600080fd5b506100fd61032d565b60405161010a91906108b5565b60405180910390f35b34801561011f57600080fd5b5061013a600480360381019061013591906107ca565b610333565b005b34801561014857600080fd5b50610151610364565b005b34801561015f57600080fd5b50610168610461565b60405161017591906108d0565b60405180910390f35b34801561018a57600080fd5b506101a560048036038101906101a091906107ca565b610487565b005b3480156101b357600080fd5b506101bc610642565b6040516101c991906108b5565b60405180910390f35b6101ec60048036038101906101e791906107ca565b610648565b005b6000543414610232576040517f08c379a000000000000000000000000000000000000000000000000000000000815260040161022990610948565b60405180910390fd5b60016000828152602001908152602001600020600201600081548092919061025990610997565b9190505550600360009054906101000a900473ffffffffffffffffffffffffffffffffffffffff1673ffffffffffffffffffffffffffffffffffffffff166108fc349081150290604051600060405180830381858888f193505050501580156102c6573d6000803e3d6000fd5b5050565b60016020528060005260406000206000915090508060000154908060010160009054906101000a900473ffffffffffffffffffffffffffffffffffffffff16908060020154908060030154908060040160009054906101000a900460ff16905085565b60025481565b600180600083815260200190815260200160002060040160006101000a81548160ff02191690831515021790555050565b6002600081548092919061037790610997565b9190505550600254600160006002548152602001908152602001600020600001819055503360016000600254815260200190815260200160002060010160006101000a81548173ffffffffffffffffffffffffffffffffffffffff021916908373ffffffffffffffffffffffffffffffffffffffff160217905550600060016000600254815260200190815260200160002060020181905550600060016000600254815260200190815260200160002060030181905550600060016000600254815260200190815260200160002060040160006101000a81548160ff021916908315150217905550565b600360009054906101000a900473ffffffffffffffffffffffffffffffffffffffff1681565b6001600082815260200190815260200160002060040160009054906101000a900460ff166104ea576040517f08c379a00000000000000000000000000000000000000000000000000000000081526004016104e190610a2b565b60405180910390fd5b6001600082815260200190815260200160002060050160003373ffffffffffffffffffffffffffffffffffffffff1673ffffffffffffffffffffffffffffffffffffffff16815260200190815260200160002060009054906101000a900460ff1661058a576040517f08c379a000000000000000000000000000000000000000000000000000000000815260040161058190610a97565b60405180910390fd5b60006001600083815260200190815260200160002060050160003373ffffffffffffffffffffffffffffffffffffffff1673ffffffffffffffffffffffffffffffffffffffff16815260200190815260200160002060006101000a81548160ff0219169083151502179055503373ffffffffffffffffffffffffffffffffffffffff166108fc6000549081150290604051600060405180830381858888f1935050505015801561063e573d6000803e3d6000fd5b5050565b60005481565b600054341461068c576040517f08c379a000000000000000000000000000000000000000000000000000000000815260040161068390610b03565b60405180910390fd5b6001600082815260200190815260200160002060030160008154809291906106b390610997565b9190505550600180600083815260200190815260200160002060050160003373ffffffffffffffffffffffffffffffffffffffff1673ffffffffffffffffffffffffffffffffffffffff16815260200190815260200160002060006101000a81548160ff021916908315150217905550600360009054906101000a900473ffffffffffffffffffffffffffffffffffffffff1673ffffffffffffffffffffffffffffffffffffffff166108fc349081150290604051600060405180830381858888f1935050505015801561078b573d6000803e3d6000fd5b5050565b600080fd5b6000819050919050565b6107a781610794565b81146107b257600080fd5b50565b6000813590506107c48161079e565b92915050565b6000602082840312156107e0576107df61078f565b5b60006107ee848285016107b5565b91505092915050565b61080081610794565b82525050565b600073ffffffffffffffffffffffffffffffffffffffff82169050919050565b600061083182610806565b9050919050565b61084181610826565b82525050565b60008115159050919050565b61085c81610847565b82525050565b600060a08201905061087760008301886107f7565b6108846020830187610838565b61089160408301866107f7565b61089e60608301856107f7565b6108ab6080830184610853565b9695505050505050565b60006020820190506108ca60008301846107f7565b92915050565b60006020820190506108e56000830184610838565b92915050565b600082825260208201905092915050565b7f4d75737420706179206578616374207570766f74652066656500000000000000600082015250565b60006109326019836108eb565b915061093d826108fc565b602082019050919050565b6000602082019050818103600083015261096181610925565b9050919050565b7f4e487b7100000000000000000000000000000000000000000000000000000000600052601160045260246000fd5b60006109a282610794565b91507fffffffffffffffffffffffffffffffffffffffffffffffffffffffffffffffff82036109d4576109d3610968565b5b600182019050919050565b7f506f7374206e6f7420666c6167676564206173207363616d0000000000000000600082015250565b6000610a156018836108eb565b9150610a20826109df565b602082019050919050565b60006020820190508181036000830152610a4481610a08565b9050919050565b7f596f75206469646e277420646f776e766f746500000000000000000000000000600082015250565b6000610a816013836108eb565b9150610a8c82610a4b565b602082019050919050565b60006020820190508181036000830152610ab081610a74565b9050919050565b7f4d7573742070617920657861637420646f776e766f7465206665650000000000600082015250565b6000610aed601b836108eb565b9150610af882610ab7565b602082019050919050565b60006020820190508181036000830152610b1c81610ae0565b905091905056fea2646970667358221220618a45c88c7545a4a3835741ea6cf4e3c669266c82c7f66a805b43ad52e59a0264736f6c63430008140033",
  "linkReferences": {},
  "deployedLinkReferences": {}
}