{
  "_format": "hh-sol-artifact-1",
  "contractName": "VoteSmarter",
  "sourceName": "contracts/voteSmarter.sol",
  "abi": [
    {
      "inputs": [
        {
          "internalType": "address",
          "name": "_treasury",
          "type": "address"
        }
      ],
      "stateMutability": "nonpayable",
      "type": "constructor"
    },
    {
      "inputs": [
        {
          "internalType": "address",
          "name": "walletAddress",
          "type": "address"
        },
        {
          "internalType": "string",
          "name": "name",
          "type": "string"
        },
        {
          "internalType": "string",
          "name": "profilePic",
          "type": "string"
        }
      ],
      "name": "createCreator",
      "outputs": [],
      "stateMutability": "nonpayable",
      "type": "function"
    },
    {
      "inputs": [],
      "name": "createPost",
      "outputs": [],
      "stateMutability": "nonpayable",
      "type": "function"
    },
    {
      "inputs": [
        {
          "internalType": "uint256",
          "name": "",
          "type": "uint256"
        }
      ],
      "name": "creatorAddresses",
      "outputs": [
        {
          "internalType": "address",
          "name": "",
          "type": "address"
        }
      ],
      "stateMutability": "view",
      "type": "function"
    },
    {
      "inputs": [
        {
          "internalType": "address",
          "name": "",
          "type": "address"
        }
      ],
      "name": "creators",
      "outputs": [
        {
          "internalType": "address",
          "name": "wallet",
          "type": "address"
        },
        {
          "internalType": "string",
          "name": "name",
          "type": "string"
        },
        {
          "internalType": "string",
          "name": "profilePic",
          "type": "string"
        }
      ],
      "stateMutability": "view",
      "type": "function"
    },
    {
      "inputs": [
        {
          "internalType": "address",
          "name": "creatorAddress",
          "type": "address"
        }
      ],
      "name": "deleteCreatorAndPosts",
      "outputs": [],
      "stateMutability": "nonpayable",
      "type": "function"
    },
    {
      "inputs": [
        {
          "internalType": "uint256",
          "name": "postId",
          "type": "uint256"
        }
      ],
      "name": "downvote",
      "outputs": [],
      "stateMutability": "payable",
      "type": "function"
    },
    {
      "inputs": [
        {
          "internalType": "uint256",
          "name": "postId",
          "type": "uint256"
        }
      ],
      "name": "flagScam",
      "outputs": [],
      "stateMutability": "nonpayable",
      "type": "function"
    },
    {
      "inputs": [],
      "name": "getAllCreators",
      "outputs": [
        {
          "components": [
            {
              "internalType": "address",
              "name": "wallet",
              "type": "address"
            },
            {
              "internalType": "string",
              "name": "name",
              "type": "string"
            },
            {
              "internalType": "string",
              "name": "profilePic",
              "type": "string"
            }
          ],
          "internalType": "struct VoteSmarter.Creator[]",
          "name": "",
          "type": "tuple[]"
        }
      ],
      "stateMutability": "view",
      "type": "function"
    },
    {
      "inputs": [
        {
          "internalType": "uint256",
          "name": "postId",
          "type": "uint256"
        }
      ],
      "name": "getPostVotes",
      "outputs": [
        {
          "internalType": "uint256",
          "name": "upvotes",
          "type": "uint256"
        },
        {
          "internalType": "uint256",
          "name": "downvotes",
          "type": "uint256"
        }
      ],
      "stateMutability": "view",
      "type": "function"
    },
    {
      "inputs": [],
      "name": "postCount",
      "outputs": [
        {
          "internalType": "uint256",
          "name": "",
          "type": "uint256"
        }
      ],
      "stateMutability": "view",
      "type": "function"
    },
    {
      "inputs": [
        {
          "internalType": "uint256",
          "name": "",
          "type": "uint256"
        }
      ],
      "name": "posts",
      "outputs": [
        {
          "internalType": "uint256",
          "name": "id",
          "type": "uint256"
        },
        {
          "internalType": "address",
          "name": "creator",
          "type": "address"
        },
        {
          "internalType": "uint256",
          "name": "upvotes",
          "type": "uint256"
        },
        {
          "internalType": "uint256",
          "name": "downvotes",
          "type": "uint256"
        },
        {
          "internalType": "bool",
          "name": "flagged",
          "type": "bool"
        }
      ],
      "stateMutability": "view",
      "type": "function"
    },
    {
      "inputs": [
        {
          "internalType": "uint256",
          "name": "postId",
          "type": "uint256"
        }
      ],
      "name": "refundDownvote",
      "outputs": [],
      "stateMutability": "nonpayable",
      "type": "function"
    },
    {
      "inputs": [],
      "name": "treasury",
      "outputs": [
        {
          "internalType": "address",
          "name": "",
          "type": "address"
        }
      ],
      "stateMutability": "view",
      "type": "function"
    },
    {
      "inputs": [
        {
          "internalType": "uint256",
          "name": "postId",
          "type": "uint256"
        }
      ],
      "name": "upvote",
      "outputs": [],
      "stateMutability": "payable",
      "type": "function"
    },
    {
      "inputs": [],
      "name": "voteFee",
      "outputs": [
        {
          "internalType": "uint256",
          "name": "",
          "type": "uint256"
        }
      ],
      "stateMutability": "view",
      "type": "function"
    }
  ],
  "bytecode": "0x608060405266038d7ea4c680006000553480156200001c57600080fd5b5060405162002432380380620024328339818101604052810190620000429190620000f4565b80600360006101000a81548173ffffffffffffffffffffffffffffffffffffffff021916908373ffffffffffffffffffffffffffffffffffffffff1602179055505062000126565b600080fd5b600073ffffffffffffffffffffffffffffffffffffffff82169050919050565b6000620000bc826200008f565b9050919050565b620000ce81620000af565b8114620000da57600080fd5b50565b600081519050620000ee81620000c3565b92915050565b6000602082840312156200010d576200010c6200008a565b5b60006200011d84828501620000dd565b91505092915050565b6122fc80620001366000396000f3fe6080604052600436106100e85760003560e01c8063933166e11161008a578063da2b4c1e11610059578063da2b4c1e146102d7578063db4fc5d614610302578063f31fdad414610340578063f97fac4d1461035c576100e8565b8063933166e11461021d5780639c0ba4df1461025c578063d557a64f14610285578063d5d7b290146102ae576100e8565b80631ccdf910116100c65780631ccdf9101461017557806345612d201461019e57806361d027b3146101b55780637c0cc8b3146101e0576100e8565b806301ddf070146100ed5780630b1e7f831461010957806317906c2e1461014a575b600080fd5b610107600480360381019061010291906115b3565b610387565b005b34801561011557600080fd5b50610130600480360381019061012b91906115b3565b610463565b60405161014195949392919061164b565b60405180910390f35b34801561015657600080fd5b5061015f6104c6565b60405161016c919061169e565b60405180910390f35b34801561018157600080fd5b5061019c600480360381019061019791906115b3565b6104cc565b005b3480156101aa57600080fd5b506101b36104fd565b005b3480156101c157600080fd5b506101ca6105fa565b6040516101d791906116b9565b60405180910390f35b3480156101ec57600080fd5b50610207600480360381019061020291906115b3565b610620565b60405161021491906116b9565b60405180910390f35b34801561022957600080fd5b50610244600480360381019061023f9190611700565b61065f565b604051610253939291906117bd565b60405180910390f35b34801561026857600080fd5b50610283600480360381019061027e91906115b3565b6107b9565b005b34801561029157600080fd5b506102ac60048036038101906102a79190611937565b610974565b005b3480156102ba57600080fd5b506102d560048036038101906102d09190611700565b610cbd565b005b3480156102e357600080fd5b506102ec61105e565b6040516102f9919061169e565b60405180910390f35b34801561030e57600080fd5b50610329600480360381019061032491906115b3565b611064565b6040516103379291906119c2565b60405180910390f35b61035a600480360381019061035591906115b3565b6110e4565b005b34801561036857600080fd5b5061037161122b565b60405161037e9190611b5d565b60405180910390f35b60005434146103cb576040517f08c379a00000000000000000000000000000000000000000000000000000000081526004016103c290611bcb565b60405180910390fd5b6001600082815260200190815260200160002060020160008154809291906103f290611c1a565b9190505550600360009054906101000a900473ffffffffffffffffffffffffffffffffffffffff1673ffffffffffffffffffffffffffffffffffffffff166108fc349081150290604051600060405180830381858888f1935050505015801561045f573d6000803e3d6000fd5b5050565b60016020528060005260406000206000915090508060000154908060010160009054906101000a900473ffffffffffffffffffffffffffffffffffffffff16908060020154908060030154908060040160009054906101000a900460ff16905085565b60025481565b600180600083815260200190815260200160002060040160006101000a81548160ff02191690831515021790555050565b6002600081548092919061051090611c1a565b9190505550600254600160006002548152602001908152602001600020600001819055503360016000600254815260200190815260200160002060010160006101000a81548173ffffffffffffffffffffffffffffffffffffffff021916908373ffffffffffffffffffffffffffffffffffffffff160217905550600060016000600254815260200190815260200160002060020181905550600060016000600254815260200190815260200160002060030181905550600060016000600254815260200190815260200160002060040160006101000a81548160ff021916908315150217905550565b600360009054906101000a900473ffffffffffffffffffffffffffffffffffffffff1681565b6005818154811061063057600080fd5b906000526020600020016000915054906101000a900473ffffffffffffffffffffffffffffffffffffffff1681565b60046020528060005260406000206000915090508060000160009054906101000a900473ffffffffffffffffffffffffffffffffffffffff16908060010180546106a890611c91565b80601f01602080910402602001604051908101604052809291908181526020018280546106d490611c91565b80156107215780601f106106f657610100808354040283529160200191610721565b820191906000526020600020905b81548152906001019060200180831161070457829003601f168201915b50505050509080600201805461073690611c91565b80601f016020809104026020016040519081016040528092919081815260200182805461076290611c91565b80156107af5780601f10610784576101008083540402835291602001916107af565b820191906000526020600020905b81548152906001019060200180831161079257829003601f168201915b5050505050905083565b6001600082815260200190815260200160002060040160009054906101000a900460ff1661081c576040517f08c379a000000000000000000000000000000000000000000000000000000000815260040161081390611d0e565b60405180910390fd5b6001600082815260200190815260200160002060050160003373ffffffffffffffffffffffffffffffffffffffff1673ffffffffffffffffffffffffffffffffffffffff16815260200190815260200160002060009054906101000a900460ff166108bc576040517f08c379a00000000000000000000000000000000000000000000000000000000081526004016108b390611d7a565b60405180910390fd5b60006001600083815260200190815260200160002060050160003373ffffffffffffffffffffffffffffffffffffffff1673ffffffffffffffffffffffffffffffffffffffff16815260200190815260200160002060006101000a81548160ff0219169083151502179055503373ffffffffffffffffffffffffffffffffffffffff166108fc6000549081150290604051600060405180830381858888f19350505050158015610970573d6000803e3d6000fd5b5050565b600073ffffffffffffffffffffffffffffffffffffffff168373ffffffffffffffffffffffffffffffffffffffff16036109e3576040517f08c379a00000000000000000000000000000000000000000000000000000000081526004016109da90611de6565b60405180910390fd5b6000600460008573ffffffffffffffffffffffffffffffffffffffff1673ffffffffffffffffffffffffffffffffffffffff1681526020019081526020016000206001018054610a3290611c91565b905014610a74576040517f08c379a0000000000000000000000000000000000000000000000000000000008152600401610a6b90611e52565b60405180910390fd5b60405180606001604052808473ffffffffffffffffffffffffffffffffffffffff16815260200183815260200182815250600460008573ffffffffffffffffffffffffffffffffffffffff1673ffffffffffffffffffffffffffffffffffffffff16815260200190815260200160002060008201518160000160006101000a81548173ffffffffffffffffffffffffffffffffffffffff021916908373ffffffffffffffffffffffffffffffffffffffff1602179055506020820151816001019081610b40919061201e565b506040820151816002019081610b56919061201e565b509050506005839080600181540180825580915050600190039060005260206000200160009091909190916101000a81548173ffffffffffffffffffffffffffffffffffffffff021916908373ffffffffffffffffffffffffffffffffffffffff16021790555060026000815480929190610bd090611c1a565b9190505550600254600160006002548152602001908152602001600020600001819055508260016000600254815260200190815260200160002060010160006101000a81548173ffffffffffffffffffffffffffffffffffffffff021916908373ffffffffffffffffffffffffffffffffffffffff160217905550600060016000600254815260200190815260200160002060020181905550600060016000600254815260200190815260200160002060030181905550600060016000600254815260200190815260200160002060040160006101000a81548160ff021916908315150217905550505050565b6000600460008373ffffffffffffffffffffffffffffffffffffffff1673ffffffffffffffffffffffffffffffffffffffff1681526020019081526020016000206001018054610d0c90611c91565b905011610d4e576040517f08c379a0000000000000000000000000000000000000000000000000000000008152600401610d459061213c565b60405180910390fd5b6000600190505b6002548111610e44578173ffffffffffffffffffffffffffffffffffffffff166001600083815260200190815260200160002060010160009054906101000a900473ffffffffffffffffffffffffffffffffffffffff1673ffffffffffffffffffffffffffffffffffffffff1603610e3157600160008281526020019081526020016000206000808201600090556001820160006101000a81549073ffffffffffffffffffffffffffffffffffffffff0219169055600282016000905560038201600090556004820160006101000a81549060ff021916905550505b8080610e3c90611c1a565b915050610d55565b50600460008273ffffffffffffffffffffffffffffffffffffffff1673ffffffffffffffffffffffffffffffffffffffff168152602001908152602001600020600080820160006101000a81549073ffffffffffffffffffffffffffffffffffffffff0219169055600182016000610ebc91906114d5565b600282016000610ecc91906114d5565b505060005b60058054905081101561105a578173ffffffffffffffffffffffffffffffffffffffff1660058281548110610f0957610f0861215c565b5b9060005260206000200160009054906101000a900473ffffffffffffffffffffffffffffffffffffffff1673ffffffffffffffffffffffffffffffffffffffff16036110475760056001600580549050610f63919061218b565b81548110610f7457610f7361215c565b5b9060005260206000200160009054906101000a900473ffffffffffffffffffffffffffffffffffffffff1660058281548110610fb357610fb261215c565b5b9060005260206000200160006101000a81548173ffffffffffffffffffffffffffffffffffffffff021916908373ffffffffffffffffffffffffffffffffffffffff160217905550600580548061100d5761100c6121bf565b5b6001900381819060005260206000200160006101000a81549073ffffffffffffffffffffffffffffffffffffffff0219169055905561105a565b808061105290611c1a565b915050610ed1565b5050565b60005481565b6000806000831015801561107a57506002548311155b6110b9576040517f08c379a00000000000000000000000000000000000000000000000000000000081526004016110b09061223a565b60405180910390fd5b6000600160008581526020019081526020016000209050806002015481600301549250925050915091565b6000543414611128576040517f08c379a000000000000000000000000000000000000000000000000000000000815260040161111f906122a6565b60405180910390fd5b60016000828152602001908152602001600020600301600081548092919061114f90611c1a565b9190505550600180600083815260200190815260200160002060050160003373ffffffffffffffffffffffffffffffffffffffff1673ffffffffffffffffffffffffffffffffffffffff16815260200190815260200160002060006101000a81548160ff021916908315150217905550600360009054906101000a900473ffffffffffffffffffffffffffffffffffffffff1673ffffffffffffffffffffffffffffffffffffffff166108fc349081150290604051600060405180830381858888f19350505050158015611227573d6000803e3d6000fd5b5050565b6060600060058054905067ffffffffffffffff81111561124e5761124d61180c565b5b60405190808252806020026020018201604052801561128757816020015b611274611515565b81526020019060019003908161126c5790505b50905060005b6005805490508110156114cd5760046000600583815481106112b2576112b161215c565b5b9060005260206000200160009054906101000a900473ffffffffffffffffffffffffffffffffffffffff1673ffffffffffffffffffffffffffffffffffffffff1673ffffffffffffffffffffffffffffffffffffffff1681526020019081526020016000206040518060600160405290816000820160009054906101000a900473ffffffffffffffffffffffffffffffffffffffff1673ffffffffffffffffffffffffffffffffffffffff1673ffffffffffffffffffffffffffffffffffffffff16815260200160018201805461138890611c91565b80601f01602080910402602001604051908101604052809291908181526020018280546113b490611c91565b80156114015780601f106113d657610100808354040283529160200191611401565b820191906000526020600020905b8154815290600101906020018083116113e457829003601f168201915b5050505050815260200160028201805461141a90611c91565b80601f016020809104026020016040519081016040528092919081815260200182805461144690611c91565b80156114935780601f1061146857610100808354040283529160200191611493565b820191906000526020600020905b81548152906001019060200180831161147657829003601f168201915b5050505050815250508282815181106114af576114ae61215c565b5b602002602001018190525080806114c590611c1a565b91505061128d565b508091505090565b5080546114e190611c91565b6000825580601f106114f35750611512565b601f016020900490600052602060002090810190611511919061154c565b5b50565b6040518060600160405280600073ffffffffffffffffffffffffffffffffffffffff16815260200160608152602001606081525090565b5b8082111561156557600081600090555060010161154d565b5090565b6000604051905090565b600080fd5b600080fd5b6000819050919050565b6115908161157d565b811461159b57600080fd5b50565b6000813590506115ad81611587565b92915050565b6000602082840312156115c9576115c8611573565b5b60006115d78482850161159e565b91505092915050565b6115e98161157d565b82525050565b600073ffffffffffffffffffffffffffffffffffffffff82169050919050565b600061161a826115ef565b9050919050565b61162a8161160f565b82525050565b60008115159050919050565b61164581611630565b82525050565b600060a08201905061166060008301886115e0565b61166d6020830187611621565b61167a60408301866115e0565b61168760608301856115e0565b611694608083018461163c565b9695505050505050565b60006020820190506116b360008301846115e0565b92915050565b60006020820190506116ce6000830184611621565b92915050565b6116dd8161160f565b81146116e857600080fd5b50565b6000813590506116fa816116d4565b92915050565b60006020828403121561171657611715611573565b5b6000611724848285016116eb565b91505092915050565b600081519050919050565b600082825260208201905092915050565b60005b8381101561176757808201518184015260208101905061174c565b60008484015250505050565b6000601f19601f8301169050919050565b600061178f8261172d565b6117998185611738565b93506117a9818560208601611749565b6117b281611773565b840191505092915050565b60006060820190506117d26000830186611621565b81810360208301526117e48185611784565b905081810360408301526117f88184611784565b9050949350505050565b600080fd5b600080fd5b7f4e487b7100000000000000000000000000000000000000000000000000000000600052604160045260246000fd5b61184482611773565b810181811067ffffffffffffffff821117156118635761186261180c565b5b80604052505050565b6000611876611569565b9050611882828261183b565b919050565b600067ffffffffffffffff8211156118a2576118a161180c565b5b6118ab82611773565b9050602081019050919050565b82818337600083830152505050565b60006118da6118d584611887565b61186c565b9050828152602081018484840111156118f6576118f5611807565b5b6119018482856118b8565b509392505050565b600082601f83011261191e5761191d611802565b5b813561192e8482602086016118c7565b91505092915050565b6000806000606084860312156119505761194f611573565b5b600061195e868287016116eb565b935050602084013567ffffffffffffffff81111561197f5761197e611578565b5b61198b86828701611909565b925050604084013567ffffffffffffffff8111156119ac576119ab611578565b5b6119b886828701611909565b9150509250925092565b60006040820190506119d760008301856115e0565b6119e460208301846115e0565b9392505050565b600081519050919050565b600082825260208201905092915050565b6000819050602082019050919050565b611a208161160f565b82525050565b600082825260208201905092915050565b6000611a428261172d565b611a4c8185611a26565b9350611a5c818560208601611749565b611a6581611773565b840191505092915050565b6000606083016000830151611a886000860182611a17565b5060208301518482036020860152611aa08282611a37565b91505060408301518482036040860152611aba8282611a37565b9150508091505092915050565b6000611ad38383611a70565b905092915050565b6000602082019050919050565b6000611af3826119eb565b611afd81856119f6565b935083602082028501611b0f85611a07565b8060005b85811015611b4b5784840389528151611b2c8582611ac7565b9450611b3783611adb565b925060208a01995050600181019050611b13565b50829750879550505050505092915050565b60006020820190508181036000830152611b778184611ae8565b905092915050565b7f4d75737420706179206578616374207570766f74652066656500000000000000600082015250565b6000611bb5601983611738565b9150611bc082611b7f565b602082019050919050565b60006020820190508181036000830152611be481611ba8565b9050919050565b7f4e487b7100000000000000000000000000000000000000000000000000000000600052601160045260246000fd5b6000611c258261157d565b91507fffffffffffffffffffffffffffffffffffffffffffffffffffffffffffffffff8203611c5757611c56611beb565b5b600182019050919050565b7f4e487b7100000000000000000000000000000000000000000000000000000000600052602260045260246000fd5b60006002820490506001821680611ca957607f821691505b602082108103611cbc57611cbb611c62565b5b50919050565b7f506f7374206e6f7420666c6167676564206173207363616d0000000000000000600082015250565b6000611cf8601883611738565b9150611d0382611cc2565b602082019050919050565b60006020820190508181036000830152611d2781611ceb565b9050919050565b7f596f75206469646e277420646f776e766f746500000000000000000000000000600082015250565b6000611d64601383611738565b9150611d6f82611d2e565b602082019050919050565b60006020820190508181036000830152611d9381611d57565b9050919050565b7f496e76616c69642077616c6c6574206164647265737300000000000000000000600082015250565b6000611dd0601683611738565b9150611ddb82611d9a565b602082019050919050565b60006020820190508181036000830152611dff81611dc3565b9050919050565b7f43726561746f7220616c72656164792065786973747300000000000000000000600082015250565b6000611e3c601683611738565b9150611e4782611e06565b602082019050919050565b60006020820190508181036000830152611e6b81611e2f565b9050919050565b60008190508160005260206000209050919050565b60006020601f8301049050919050565b600082821b905092915050565b600060088302611ed47fffffffffffffffffffffffffffffffffffffffffffffffffffffffffffffffff82611e97565b611ede8683611e97565b95508019841693508086168417925050509392505050565b6000819050919050565b6000611f1b611f16611f118461157d565b611ef6565b61157d565b9050919050565b6000819050919050565b611f3583611f00565b611f49611f4182611f22565b848454611ea4565b825550505050565b600090565b611f5e611f51565b611f69818484611f2c565b505050565b5b81811015611f8d57611f82600082611f56565b600181019050611f6f565b5050565b601f821115611fd257611fa381611e72565b611fac84611e87565b81016020851015611fbb578190505b611fcf611fc785611e87565b830182611f6e565b50505b505050565b600082821c905092915050565b6000611ff560001984600802611fd7565b1980831691505092915050565b600061200e8383611fe4565b9150826002028217905092915050565b6120278261172d565b67ffffffffffffffff8111156120405761203f61180c565b5b61204a8254611c91565b612055828285611f91565b600060209050601f8311600181146120885760008415612076578287015190505b6120808582612002565b8655506120e8565b601f19841661209686611e72565b60005b828110156120be57848901518255600182019150602085019450602081019050612099565b868310156120db57848901516120d7601f891682611fe4565b8355505b6001600288020188555050505b505050505050565b7f43726561746f7220646f6573206e6f7420657869737400000000000000000000600082015250565b6000612126601683611738565b9150612131826120f0565b602082019050919050565b6000602082019050818103600083015261215581612119565b9050919050565b7f4e487b7100000000000000000000000000000000000000000000000000000000600052603260045260246000fd5b60006121968261157d565b91506121a18361157d565b92508282039050818111156121b9576121b8611beb565b5b92915050565b7f4e487b7100000000000000000000000000000000000000000000000000000000600052603160045260246000fd5b7f506f737420646f6573206e6f7420657869737400000000000000000000000000600082015250565b6000612224601383611738565b915061222f826121ee565b602082019050919050565b6000602082019050818103600083015261225381612217565b9050919050565b7f4d7573742070617920657861637420646f776e766f7465206665650000000000600082015250565b6000612290601b83611738565b915061229b8261225a565b602082019050919050565b600060208201905081810360008301526122bf81612283565b905091905056fea264697066735822122091b3fe9eb32d9049a2335005c364d3b8a42c871a8fa1c4990c000790992159bc64736f6c63430008140033",
  "linkReferences": {},
  "deployedLinkReferences": {}
}