{
  "_format": "hh-sol-artifact-1",
  "contractName": "VoteSmarter",
  "sourceName": "contracts/voteSmarter.sol",
  "abi": [
    {
      "inputs": [
        {
          "internalType": "address",
          "name": "_treasury",
          "type": "address"
        }
      ],
      "stateMutability": "nonpayable",
      "type": "constructor"
    },
    {
      "inputs": [
        {
          "internalType": "address",
          "name": "walletAddress",
          "type": "address"
        },
        {
          "internalType": "string",
          "name": "name",
          "type": "string"
        },
        {
          "internalType": "string",
          "name": "profilePic",
          "type": "string"
        }
      ],
      "name": "createCreator",
      "outputs": [],
      "stateMutability": "nonpayable",
      "type": "function"
    },
    {
      "inputs": [],
      "name": "createPost",
      "outputs": [],
      "stateMutability": "nonpayable",
      "type": "function"
    },
    {
      "inputs": [
        {
          "internalType": "uint256",
          "name": "",
          "type": "uint256"
        }
      ],
      "name": "creatorAddresses",
      "outputs": [
        {
          "internalType": "address",
          "name": "",
          "type": "address"
        }
      ],
      "stateMutability": "view",
      "type": "function"
    },
    {
      "inputs": [
        {
          "internalType": "address",
          "name": "",
          "type": "address"
        }
      ],
      "name": "creators",
      "outputs": [
        {
          "internalType": "address",
          "name": "wallet",
          "type": "address"
        },
        {
          "internalType": "string",
          "name": "name",
          "type": "string"
        },
        {
          "internalType": "string",
          "name": "profilePic",
          "type": "string"
        }
      ],
      "stateMutability": "view",
      "type": "function"
    },
    {
      "inputs": [
        {
          "internalType": "address",
          "name": "creatorAddress",
          "type": "address"
        }
      ],
      "name": "deleteCreatorAndPosts",
      "outputs": [],
      "stateMutability": "nonpayable",
      "type": "function"
    },
    {
      "inputs": [
        {
          "internalType": "uint256",
          "name": "postId",
          "type": "uint256"
        }
      ],
      "name": "downvote",
      "outputs": [],
      "stateMutability": "payable",
      "type": "function"
    },
    {
      "inputs": [
        {
          "internalType": "uint256",
          "name": "postId",
          "type": "uint256"
        }
      ],
      "name": "flagScam",
      "outputs": [],
      "stateMutability": "nonpayable",
      "type": "function"
    },
    {
      "inputs": [],
      "name": "getAllCreators",
      "outputs": [
        {
          "components": [
            {
              "internalType": "address",
              "name": "wallet",
              "type": "address"
            },
            {
              "internalType": "string",
              "name": "name",
              "type": "string"
            },
            {
              "internalType": "string",
              "name": "profilePic",
              "type": "string"
            }
          ],
          "internalType": "struct VoteSmarter.Creator[]",
          "name": "",
          "type": "tuple[]"
        }
      ],
      "stateMutability": "view",
      "type": "function"
    },
    {
      "inputs": [],
      "name": "postCount",
      "outputs": [
        {
          "internalType": "uint256",
          "name": "",
          "type": "uint256"
        }
      ],
      "stateMutability": "view",
      "type": "function"
    },
    {
      "inputs": [
        {
          "internalType": "uint256",
          "name": "",
          "type": "uint256"
        }
      ],
      "name": "posts",
      "outputs": [
        {
          "internalType": "uint256",
          "name": "id",
          "type": "uint256"
        },
        {
          "internalType": "address",
          "name": "creator",
          "type": "address"
        },
        {
          "internalType": "uint256",
          "name": "upvotes",
          "type": "uint256"
        },
        {
          "internalType": "uint256",
          "name": "downvotes",
          "type": "uint256"
        },
        {
          "internalType": "bool",
          "name": "flagged",
          "type": "bool"
        }
      ],
      "stateMutability": "view",
      "type": "function"
    },
    {
      "inputs": [
        {
          "internalType": "uint256",
          "name": "postId",
          "type": "uint256"
        }
      ],
      "name": "refundDownvote",
      "outputs": [],
      "stateMutability": "nonpayable",
      "type": "function"
    },
    {
      "inputs": [],
      "name": "treasury",
      "outputs": [
        {
          "internalType": "address",
          "name": "",
          "type": "address"
        }
      ],
      "stateMutability": "view",
      "type": "function"
    },
    {
      "inputs": [
        {
          "internalType": "uint256",
          "name": "postId",
          "type": "uint256"
        }
      ],
      "name": "upvote",
      "outputs": [],
      "stateMutability": "payable",
      "type": "function"
    },
    {
      "inputs": [],
      "name": "voteFee",
      "outputs": [
        {
          "internalType": "uint256",
          "name": "",
          "type": "uint256"
        }
      ],
      "stateMutability": "view",
      "type": "function"
    }
  ],
  "bytecode": "0x608060405266038d7ea4c680006000553480156200001c57600080fd5b50604051620022d4380380620022d48339818101604052810190620000429190620000f4565b80600360006101000a81548173ffffffffffffffffffffffffffffffffffffffff021916908373ffffffffffffffffffffffffffffffffffffffff1602179055505062000126565b600080fd5b600073ffffffffffffffffffffffffffffffffffffffff82169050919050565b6000620000bc826200008f565b9050919050565b620000ce81620000af565b8114620000da57600080fd5b50565b600081519050620000ee81620000c3565b92915050565b6000602082840312156200010d576200010c6200008a565b5b60006200011d84828501620000dd565b91505092915050565b61219e80620001366000396000f3fe6080604052600436106100dd5760003560e01c8063933166e11161007f578063d5d7b29011610059578063d5d7b290146102a3578063da2b4c1e146102cc578063f31fdad4146102f7578063f97fac4d14610313576100dd565b8063933166e1146102125780639c0ba4df14610251578063d557a64f1461027a576100dd565b80631ccdf910116100bb5780631ccdf9101461016a57806345612d201461019357806361d027b3146101aa5780637c0cc8b3146101d5576100dd565b806301ddf070146100e25780630b1e7f83146100fe57806317906c2e1461013f575b600080fd5b6100fc60048036038101906100f791906114ea565b61033e565b005b34801561010a57600080fd5b50610125600480360381019061012091906114ea565b61041a565b604051610136959493929190611582565b60405180910390f35b34801561014b57600080fd5b5061015461047d565b60405161016191906115d5565b60405180910390f35b34801561017657600080fd5b50610191600480360381019061018c91906114ea565b610483565b005b34801561019f57600080fd5b506101a86104b4565b005b3480156101b657600080fd5b506101bf6105b1565b6040516101cc91906115f0565b60405180910390f35b3480156101e157600080fd5b506101fc60048036038101906101f791906114ea565b6105d7565b60405161020991906115f0565b60405180910390f35b34801561021e57600080fd5b5061023960048036038101906102349190611637565b610616565b604051610248939291906116f4565b60405180910390f35b34801561025d57600080fd5b50610278600480360381019061027391906114ea565b610770565b005b34801561028657600080fd5b506102a1600480360381019061029c919061186e565b61092b565b005b3480156102af57600080fd5b506102ca60048036038101906102c59190611637565b610c74565b005b3480156102d857600080fd5b506102e1611015565b6040516102ee91906115d5565b60405180910390f35b610311600480360381019061030c91906114ea565b61101b565b005b34801561031f57600080fd5b50610328611162565b6040516103359190611a6b565b60405180910390f35b6000543414610382576040517f08c379a000000000000000000000000000000000000000000000000000000000815260040161037990611ad9565b60405180910390fd5b6001600082815260200190815260200160002060020160008154809291906103a990611b28565b9190505550600360009054906101000a900473ffffffffffffffffffffffffffffffffffffffff1673ffffffffffffffffffffffffffffffffffffffff166108fc349081150290604051600060405180830381858888f19350505050158015610416573d6000803e3d6000fd5b5050565b60016020528060005260406000206000915090508060000154908060010160009054906101000a900473ffffffffffffffffffffffffffffffffffffffff16908060020154908060030154908060040160009054906101000a900460ff16905085565b60025481565b600180600083815260200190815260200160002060040160006101000a81548160ff02191690831515021790555050565b600260008154809291906104c790611b28565b9190505550600254600160006002548152602001908152602001600020600001819055503360016000600254815260200190815260200160002060010160006101000a81548173ffffffffffffffffffffffffffffffffffffffff021916908373ffffffffffffffffffffffffffffffffffffffff160217905550600060016000600254815260200190815260200160002060020181905550600060016000600254815260200190815260200160002060030181905550600060016000600254815260200190815260200160002060040160006101000a81548160ff021916908315150217905550565b600360009054906101000a900473ffffffffffffffffffffffffffffffffffffffff1681565b600581815481106105e757600080fd5b906000526020600020016000915054906101000a900473ffffffffffffffffffffffffffffffffffffffff1681565b60046020528060005260406000206000915090508060000160009054906101000a900473ffffffffffffffffffffffffffffffffffffffff169080600101805461065f90611b9f565b80601f016020809104026020016040519081016040528092919081815260200182805461068b90611b9f565b80156106d85780601f106106ad576101008083540402835291602001916106d8565b820191906000526020600020905b8154815290600101906020018083116106bb57829003601f168201915b5050505050908060020180546106ed90611b9f565b80601f016020809104026020016040519081016040528092919081815260200182805461071990611b9f565b80156107665780601f1061073b57610100808354040283529160200191610766565b820191906000526020600020905b81548152906001019060200180831161074957829003601f168201915b5050505050905083565b6001600082815260200190815260200160002060040160009054906101000a900460ff166107d3576040517f08c379a00000000000000000000000000000000000000000000000000000000081526004016107ca90611c1c565b60405180910390fd5b6001600082815260200190815260200160002060050160003373ffffffffffffffffffffffffffffffffffffffff1673ffffffffffffffffffffffffffffffffffffffff16815260200190815260200160002060009054906101000a900460ff16610873576040517f08c379a000000000000000000000000000000000000000000000000000000000815260040161086a90611c88565b60405180910390fd5b60006001600083815260200190815260200160002060050160003373ffffffffffffffffffffffffffffffffffffffff1673ffffffffffffffffffffffffffffffffffffffff16815260200190815260200160002060006101000a81548160ff0219169083151502179055503373ffffffffffffffffffffffffffffffffffffffff166108fc6000549081150290604051600060405180830381858888f19350505050158015610927573d6000803e3d6000fd5b5050565b600073ffffffffffffffffffffffffffffffffffffffff168373ffffffffffffffffffffffffffffffffffffffff160361099a576040517f08c379a000000000000000000000000000000000000000000000000000000000815260040161099190611cf4565b60405180910390fd5b6000600460008573ffffffffffffffffffffffffffffffffffffffff1673ffffffffffffffffffffffffffffffffffffffff16815260200190815260200160002060010180546109e990611b9f565b905014610a2b576040517f08c379a0000000000000000000000000000000000000000000000000000000008152600401610a2290611d60565b60405180910390fd5b60405180606001604052808473ffffffffffffffffffffffffffffffffffffffff16815260200183815260200182815250600460008573ffffffffffffffffffffffffffffffffffffffff1673ffffffffffffffffffffffffffffffffffffffff16815260200190815260200160002060008201518160000160006101000a81548173ffffffffffffffffffffffffffffffffffffffff021916908373ffffffffffffffffffffffffffffffffffffffff1602179055506020820151816001019081610af79190611f2c565b506040820151816002019081610b0d9190611f2c565b509050506005839080600181540180825580915050600190039060005260206000200160009091909190916101000a81548173ffffffffffffffffffffffffffffffffffffffff021916908373ffffffffffffffffffffffffffffffffffffffff16021790555060026000815480929190610b8790611b28565b9190505550600254600160006002548152602001908152602001600020600001819055508260016000600254815260200190815260200160002060010160006101000a81548173ffffffffffffffffffffffffffffffffffffffff021916908373ffffffffffffffffffffffffffffffffffffffff160217905550600060016000600254815260200190815260200160002060020181905550600060016000600254815260200190815260200160002060030181905550600060016000600254815260200190815260200160002060040160006101000a81548160ff021916908315150217905550505050565b6000600460008373ffffffffffffffffffffffffffffffffffffffff1673ffffffffffffffffffffffffffffffffffffffff1681526020019081526020016000206001018054610cc390611b9f565b905011610d05576040517f08c379a0000000000000000000000000000000000000000000000000000000008152600401610cfc9061204a565b60405180910390fd5b6000600190505b6002548111610dfb578173ffffffffffffffffffffffffffffffffffffffff166001600083815260200190815260200160002060010160009054906101000a900473ffffffffffffffffffffffffffffffffffffffff1673ffffffffffffffffffffffffffffffffffffffff1603610de857600160008281526020019081526020016000206000808201600090556001820160006101000a81549073ffffffffffffffffffffffffffffffffffffffff0219169055600282016000905560038201600090556004820160006101000a81549060ff021916905550505b8080610df390611b28565b915050610d0c565b50600460008273ffffffffffffffffffffffffffffffffffffffff1673ffffffffffffffffffffffffffffffffffffffff168152602001908152602001600020600080820160006101000a81549073ffffffffffffffffffffffffffffffffffffffff0219169055600182016000610e73919061140c565b600282016000610e83919061140c565b505060005b600580549050811015611011578173ffffffffffffffffffffffffffffffffffffffff1660058281548110610ec057610ebf61206a565b5b9060005260206000200160009054906101000a900473ffffffffffffffffffffffffffffffffffffffff1673ffffffffffffffffffffffffffffffffffffffff1603610ffe5760056001600580549050610f1a9190612099565b81548110610f2b57610f2a61206a565b5b9060005260206000200160009054906101000a900473ffffffffffffffffffffffffffffffffffffffff1660058281548110610f6a57610f6961206a565b5b9060005260206000200160006101000a81548173ffffffffffffffffffffffffffffffffffffffff021916908373ffffffffffffffffffffffffffffffffffffffff1602179055506005805480610fc457610fc36120cd565b5b6001900381819060005260206000200160006101000a81549073ffffffffffffffffffffffffffffffffffffffff02191690559055611011565b808061100990611b28565b915050610e88565b5050565b60005481565b600054341461105f576040517f08c379a000000000000000000000000000000000000000000000000000000000815260040161105690612148565b60405180910390fd5b60016000828152602001908152602001600020600301600081548092919061108690611b28565b9190505550600180600083815260200190815260200160002060050160003373ffffffffffffffffffffffffffffffffffffffff1673ffffffffffffffffffffffffffffffffffffffff16815260200190815260200160002060006101000a81548160ff021916908315150217905550600360009054906101000a900473ffffffffffffffffffffffffffffffffffffffff1673ffffffffffffffffffffffffffffffffffffffff166108fc349081150290604051600060405180830381858888f1935050505015801561115e573d6000803e3d6000fd5b5050565b6060600060058054905067ffffffffffffffff81111561118557611184611743565b5b6040519080825280602002602001820160405280156111be57816020015b6111ab61144c565b8152602001906001900390816111a35790505b50905060005b6005805490508110156114045760046000600583815481106111e9576111e861206a565b5b9060005260206000200160009054906101000a900473ffffffffffffffffffffffffffffffffffffffff1673ffffffffffffffffffffffffffffffffffffffff1673ffffffffffffffffffffffffffffffffffffffff1681526020019081526020016000206040518060600160405290816000820160009054906101000a900473ffffffffffffffffffffffffffffffffffffffff1673ffffffffffffffffffffffffffffffffffffffff1673ffffffffffffffffffffffffffffffffffffffff1681526020016001820180546112bf90611b9f565b80601f01602080910402602001604051908101604052809291908181526020018280546112eb90611b9f565b80156113385780601f1061130d57610100808354040283529160200191611338565b820191906000526020600020905b81548152906001019060200180831161131b57829003601f168201915b5050505050815260200160028201805461135190611b9f565b80601f016020809104026020016040519081016040528092919081815260200182805461137d90611b9f565b80156113ca5780601f1061139f576101008083540402835291602001916113ca565b820191906000526020600020905b8154815290600101906020018083116113ad57829003601f168201915b5050505050815250508282815181106113e6576113e561206a565b5b602002602001018190525080806113fc90611b28565b9150506111c4565b508091505090565b50805461141890611b9f565b6000825580601f1061142a5750611449565b601f0160209004906000526020600020908101906114489190611483565b5b50565b6040518060600160405280600073ffffffffffffffffffffffffffffffffffffffff16815260200160608152602001606081525090565b5b8082111561149c576000816000905550600101611484565b5090565b6000604051905090565b600080fd5b600080fd5b6000819050919050565b6114c7816114b4565b81146114d257600080fd5b50565b6000813590506114e4816114be565b92915050565b600060208284031215611500576114ff6114aa565b5b600061150e848285016114d5565b91505092915050565b611520816114b4565b82525050565b600073ffffffffffffffffffffffffffffffffffffffff82169050919050565b600061155182611526565b9050919050565b61156181611546565b82525050565b60008115159050919050565b61157c81611567565b82525050565b600060a0820190506115976000830188611517565b6115a46020830187611558565b6115b16040830186611517565b6115be6060830185611517565b6115cb6080830184611573565b9695505050505050565b60006020820190506115ea6000830184611517565b92915050565b60006020820190506116056000830184611558565b92915050565b61161481611546565b811461161f57600080fd5b50565b6000813590506116318161160b565b92915050565b60006020828403121561164d5761164c6114aa565b5b600061165b84828501611622565b91505092915050565b600081519050919050565b600082825260208201905092915050565b60005b8381101561169e578082015181840152602081019050611683565b60008484015250505050565b6000601f19601f8301169050919050565b60006116c682611664565b6116d0818561166f565b93506116e0818560208601611680565b6116e9816116aa565b840191505092915050565b60006060820190506117096000830186611558565b818103602083015261171b81856116bb565b9050818103604083015261172f81846116bb565b9050949350505050565b600080fd5b600080fd5b7f4e487b7100000000000000000000000000000000000000000000000000000000600052604160045260246000fd5b61177b826116aa565b810181811067ffffffffffffffff8211171561179a57611799611743565b5b80604052505050565b60006117ad6114a0565b90506117b98282611772565b919050565b600067ffffffffffffffff8211156117d9576117d8611743565b5b6117e2826116aa565b9050602081019050919050565b82818337600083830152505050565b600061181161180c846117be565b6117a3565b90508281526020810184848401111561182d5761182c61173e565b5b6118388482856117ef565b509392505050565b600082601f83011261185557611854611739565b5b81356118658482602086016117fe565b91505092915050565b600080600060608486031215611887576118866114aa565b5b600061189586828701611622565b935050602084013567ffffffffffffffff8111156118b6576118b56114af565b5b6118c286828701611840565b925050604084013567ffffffffffffffff8111156118e3576118e26114af565b5b6118ef86828701611840565b9150509250925092565b600081519050919050565b600082825260208201905092915050565b6000819050602082019050919050565b61192e81611546565b82525050565b600082825260208201905092915050565b600061195082611664565b61195a8185611934565b935061196a818560208601611680565b611973816116aa565b840191505092915050565b60006060830160008301516119966000860182611925565b50602083015184820360208601526119ae8282611945565b915050604083015184820360408601526119c88282611945565b9150508091505092915050565b60006119e1838361197e565b905092915050565b6000602082019050919050565b6000611a01826118f9565b611a0b8185611904565b935083602082028501611a1d85611915565b8060005b85811015611a595784840389528151611a3a85826119d5565b9450611a45836119e9565b925060208a01995050600181019050611a21565b50829750879550505050505092915050565b60006020820190508181036000830152611a8581846119f6565b905092915050565b7f4d75737420706179206578616374207570766f74652066656500000000000000600082015250565b6000611ac360198361166f565b9150611ace82611a8d565b602082019050919050565b60006020820190508181036000830152611af281611ab6565b9050919050565b7f4e487b7100000000000000000000000000000000000000000000000000000000600052601160045260246000fd5b6000611b33826114b4565b91507fffffffffffffffffffffffffffffffffffffffffffffffffffffffffffffffff8203611b6557611b64611af9565b5b600182019050919050565b7f4e487b7100000000000000000000000000000000000000000000000000000000600052602260045260246000fd5b60006002820490506001821680611bb757607f821691505b602082108103611bca57611bc9611b70565b5b50919050565b7f506f7374206e6f7420666c6167676564206173207363616d0000000000000000600082015250565b6000611c0660188361166f565b9150611c1182611bd0565b602082019050919050565b60006020820190508181036000830152611c3581611bf9565b9050919050565b7f596f75206469646e277420646f776e766f746500000000000000000000000000600082015250565b6000611c7260138361166f565b9150611c7d82611c3c565b602082019050919050565b60006020820190508181036000830152611ca181611c65565b9050919050565b7f496e76616c69642077616c6c6574206164647265737300000000000000000000600082015250565b6000611cde60168361166f565b9150611ce982611ca8565b602082019050919050565b60006020820190508181036000830152611d0d81611cd1565b9050919050565b7f43726561746f7220616c72656164792065786973747300000000000000000000600082015250565b6000611d4a60168361166f565b9150611d5582611d14565b602082019050919050565b60006020820190508181036000830152611d7981611d3d565b9050919050565b60008190508160005260206000209050919050565b60006020601f8301049050919050565b600082821b905092915050565b600060088302611de27fffffffffffffffffffffffffffffffffffffffffffffffffffffffffffffffff82611da5565b611dec8683611da5565b95508019841693508086168417925050509392505050565b6000819050919050565b6000611e29611e24611e1f846114b4565b611e04565b6114b4565b9050919050565b6000819050919050565b611e4383611e0e565b611e57611e4f82611e30565b848454611db2565b825550505050565b600090565b611e6c611e5f565b611e77818484611e3a565b505050565b5b81811015611e9b57611e90600082611e64565b600181019050611e7d565b5050565b601f821115611ee057611eb181611d80565b611eba84611d95565b81016020851015611ec9578190505b611edd611ed585611d95565b830182611e7c565b50505b505050565b600082821c905092915050565b6000611f0360001984600802611ee5565b1980831691505092915050565b6000611f1c8383611ef2565b9150826002028217905092915050565b611f3582611664565b67ffffffffffffffff811115611f4e57611f4d611743565b5b611f588254611b9f565b611f63828285611e9f565b600060209050601f831160018114611f965760008415611f84578287015190505b611f8e8582611f10565b865550611ff6565b601f198416611fa486611d80565b60005b82811015611fcc57848901518255600182019150602085019450602081019050611fa7565b86831015611fe95784890151611fe5601f891682611ef2565b8355505b6001600288020188555050505b505050505050565b7f43726561746f7220646f6573206e6f7420657869737400000000000000000000600082015250565b600061203460168361166f565b915061203f82611ffe565b602082019050919050565b6000602082019050818103600083015261206381612027565b9050919050565b7f4e487b7100000000000000000000000000000000000000000000000000000000600052603260045260246000fd5b60006120a4826114b4565b91506120af836114b4565b92508282039050818111156120c7576120c6611af9565b5b92915050565b7f4e487b7100000000000000000000000000000000000000000000000000000000600052603160045260246000fd5b7f4d7573742070617920657861637420646f776e766f7465206665650000000000600082015250565b6000612132601b8361166f565b915061213d826120fc565b602082019050919050565b6000602082019050818103600083015261216181612125565b905091905056fea2646970667358221220ccdba2a5989ed843f1f89c9dc0bb85086cee8a60c5f4560948e245e55cb0c31d64736f6c63430008140033",
  "linkReferences": {},
  "deployedLinkReferences": {}
}