{
  "_format": "hh-sol-artifact-1",
  "contractName": "VoteSmarter",
  "sourceName": "contracts/voteSmarter.sol",
  "abi": [
    {
      "inputs": [
        {
          "internalType": "address",
          "name": "_treasury",
          "type": "address"
        }
      ],
      "stateMutability": "nonpayable",
      "type": "constructor"
    },
    {
      "inputs": [
        {
          "internalType": "address",
          "name": "walletAddress",
          "type": "address"
        },
        {
          "internalType": "string",
          "name": "name",
          "type": "string"
        },
        {
          "internalType": "string",
          "name": "profilePic",
          "type": "string"
        }
      ],
      "name": "createCreator",
      "outputs": [],
      "stateMutability": "nonpayable",
      "type": "function"
    },
    {
      "inputs": [],
      "name": "createPost",
      "outputs": [],
      "stateMutability": "nonpayable",
      "type": "function"
    },
    {
      "inputs": [
        {
          "internalType": "uint256",
          "name": "",
          "type": "uint256"
        }
      ],
      "name": "creatorAddresses",
      "outputs": [
        {
          "internalType": "address",
          "name": "",
          "type": "address"
        }
      ],
      "stateMutability": "view",
      "type": "function"
    },
    {
      "inputs": [
        {
          "internalType": "address",
          "name": "",
          "type": "address"
        }
      ],
      "name": "creators",
      "outputs": [
        {
          "internalType": "address",
          "name": "wallet",
          "type": "address"
        },
        {
          "internalType": "string",
          "name": "name",
          "type": "string"
        },
        {
          "internalType": "string",
          "name": "profilePic",
          "type": "string"
        }
      ],
      "stateMutability": "view",
      "type": "function"
    },
    {
      "inputs": [
        {
          "internalType": "uint256",
          "name": "postId",
          "type": "uint256"
        }
      ],
      "name": "downvote",
      "outputs": [],
      "stateMutability": "payable",
      "type": "function"
    },
    {
      "inputs": [
        {
          "internalType": "uint256",
          "name": "postId",
          "type": "uint256"
        }
      ],
      "name": "flagScam",
      "outputs": [],
      "stateMutability": "nonpayable",
      "type": "function"
    },
    {
      "inputs": [],
      "name": "getAllCreators",
      "outputs": [
        {
          "components": [
            {
              "internalType": "address",
              "name": "wallet",
              "type": "address"
            },
            {
              "internalType": "string",
              "name": "name",
              "type": "string"
            },
            {
              "internalType": "string",
              "name": "profilePic",
              "type": "string"
            }
          ],
          "internalType": "struct VoteSmarter.Creator[]",
          "name": "",
          "type": "tuple[]"
        }
      ],
      "stateMutability": "view",
      "type": "function"
    },
    {
      "inputs": [],
      "name": "postCount",
      "outputs": [
        {
          "internalType": "uint256",
          "name": "",
          "type": "uint256"
        }
      ],
      "stateMutability": "view",
      "type": "function"
    },
    {
      "inputs": [
        {
          "internalType": "uint256",
          "name": "",
          "type": "uint256"
        }
      ],
      "name": "posts",
      "outputs": [
        {
          "internalType": "uint256",
          "name": "id",
          "type": "uint256"
        },
        {
          "internalType": "address",
          "name": "creator",
          "type": "address"
        },
        {
          "internalType": "uint256",
          "name": "upvotes",
          "type": "uint256"
        },
        {
          "internalType": "uint256",
          "name": "downvotes",
          "type": "uint256"
        },
        {
          "internalType": "bool",
          "name": "flagged",
          "type": "bool"
        }
      ],
      "stateMutability": "view",
      "type": "function"
    },
    {
      "inputs": [
        {
          "internalType": "uint256",
          "name": "postId",
          "type": "uint256"
        }
      ],
      "name": "refundDownvote",
      "outputs": [],
      "stateMutability": "nonpayable",
      "type": "function"
    },
    {
      "inputs": [],
      "name": "treasury",
      "outputs": [
        {
          "internalType": "address",
          "name": "",
          "type": "address"
        }
      ],
      "stateMutability": "view",
      "type": "function"
    },
    {
      "inputs": [
        {
          "internalType": "uint256",
          "name": "postId",
          "type": "uint256"
        }
      ],
      "name": "upvote",
      "outputs": [],
      "stateMutability": "payable",
      "type": "function"
    },
    {
      "inputs": [],
      "name": "voteFee",
      "outputs": [
        {
          "internalType": "uint256",
          "name": "",
          "type": "uint256"
        }
      ],
      "stateMutability": "view",
      "type": "function"
    }
  ],
  "bytecode": "0x608060405264e8d4a510006000553480156200001a57600080fd5b5060405162001cc638038062001cc68339818101604052810190620000409190620000f2565b80600360006101000a81548173ffffffffffffffffffffffffffffffffffffffff021916908373ffffffffffffffffffffffffffffffffffffffff1602179055505062000124565b600080fd5b600073ffffffffffffffffffffffffffffffffffffffff82169050919050565b6000620000ba826200008d565b9050919050565b620000cc81620000ad565b8114620000d857600080fd5b50565b600081519050620000ec81620000c1565b92915050565b6000602082840312156200010b576200010a62000088565b5b60006200011b84828501620000db565b91505092915050565b611b9280620001346000396000f3fe6080604052600436106100c25760003560e01c80637c0cc8b31161007f578063d557a64f11610059578063d557a64f1461025f578063da2b4c1e14610288578063f31fdad4146102b3578063f97fac4d146102cf576100c2565b80637c0cc8b3146101ba578063933166e1146101f75780639c0ba4df14610236576100c2565b806301ddf070146100c75780630b1e7f83146100e357806317906c2e146101245780631ccdf9101461014f57806345612d201461017857806361d027b31461018f575b600080fd5b6100e160048036038101906100dc9190610fad565b6102fa565b005b3480156100ef57600080fd5b5061010a60048036038101906101059190610fad565b6103d6565b60405161011b959493929190611045565b60405180910390f35b34801561013057600080fd5b50610139610439565b6040516101469190611098565b60405180910390f35b34801561015b57600080fd5b5061017660048036038101906101719190610fad565b61043f565b005b34801561018457600080fd5b5061018d610470565b005b34801561019b57600080fd5b506101a461056d565b6040516101b191906110b3565b60405180910390f35b3480156101c657600080fd5b506101e160048036038101906101dc9190610fad565b610593565b6040516101ee91906110b3565b60405180910390f35b34801561020357600080fd5b5061021e600480360381019061021991906110fa565b6105d2565b60405161022d939291906111b7565b60405180910390f35b34801561024257600080fd5b5061025d60048036038101906102589190610fad565b61072c565b005b34801561026b57600080fd5b5061028660048036038101906102819190611331565b6108e7565b005b34801561029457600080fd5b5061029d610b35565b6040516102aa9190611098565b60405180910390f35b6102cd60048036038101906102c89190610fad565b610b3b565b005b3480156102db57600080fd5b506102e4610c82565b6040516102f1919061152e565b60405180910390f35b600054341461033e576040517f08c379a00000000000000000000000000000000000000000000000000000000081526004016103359061159c565b60405180910390fd5b600160008281526020019081526020016000206002016000815480929190610365906115eb565b9190505550600360009054906101000a900473ffffffffffffffffffffffffffffffffffffffff1673ffffffffffffffffffffffffffffffffffffffff166108fc349081150290604051600060405180830381858888f193505050501580156103d2573d6000803e3d6000fd5b5050565b60016020528060005260406000206000915090508060000154908060010160009054906101000a900473ffffffffffffffffffffffffffffffffffffffff16908060020154908060030154908060040160009054906101000a900460ff16905085565b60025481565b600180600083815260200190815260200160002060040160006101000a81548160ff02191690831515021790555050565b60026000815480929190610483906115eb565b9190505550600254600160006002548152602001908152602001600020600001819055503360016000600254815260200190815260200160002060010160006101000a81548173ffffffffffffffffffffffffffffffffffffffff021916908373ffffffffffffffffffffffffffffffffffffffff160217905550600060016000600254815260200190815260200160002060020181905550600060016000600254815260200190815260200160002060030181905550600060016000600254815260200190815260200160002060040160006101000a81548160ff021916908315150217905550565b600360009054906101000a900473ffffffffffffffffffffffffffffffffffffffff1681565b600581815481106105a357600080fd5b906000526020600020016000915054906101000a900473ffffffffffffffffffffffffffffffffffffffff1681565b60046020528060005260406000206000915090508060000160009054906101000a900473ffffffffffffffffffffffffffffffffffffffff169080600101805461061b90611662565b80601f016020809104026020016040519081016040528092919081815260200182805461064790611662565b80156106945780601f1061066957610100808354040283529160200191610694565b820191906000526020600020905b81548152906001019060200180831161067757829003601f168201915b5050505050908060020180546106a990611662565b80601f01602080910402602001604051908101604052809291908181526020018280546106d590611662565b80156107225780601f106106f757610100808354040283529160200191610722565b820191906000526020600020905b81548152906001019060200180831161070557829003601f168201915b5050505050905083565b6001600082815260200190815260200160002060040160009054906101000a900460ff1661078f576040517f08c379a0000000000000000000000000000000000000000000000000000000008152600401610786906116df565b60405180910390fd5b6001600082815260200190815260200160002060050160003373ffffffffffffffffffffffffffffffffffffffff1673ffffffffffffffffffffffffffffffffffffffff16815260200190815260200160002060009054906101000a900460ff1661082f576040517f08c379a00000000000000000000000000000000000000000000000000000000081526004016108269061174b565b60405180910390fd5b60006001600083815260200190815260200160002060050160003373ffffffffffffffffffffffffffffffffffffffff1673ffffffffffffffffffffffffffffffffffffffff16815260200190815260200160002060006101000a81548160ff0219169083151502179055503373ffffffffffffffffffffffffffffffffffffffff166108fc6000549081150290604051600060405180830381858888f193505050501580156108e3573d6000803e3d6000fd5b5050565b600073ffffffffffffffffffffffffffffffffffffffff168373ffffffffffffffffffffffffffffffffffffffff1603610956576040517f08c379a000000000000000000000000000000000000000000000000000000000815260040161094d906117b7565b60405180910390fd5b6000600460008573ffffffffffffffffffffffffffffffffffffffff1673ffffffffffffffffffffffffffffffffffffffff16815260200190815260200160002060010180546109a590611662565b9050146109e7576040517f08c379a00000000000000000000000000000000000000000000000000000000081526004016109de90611823565b60405180910390fd5b60405180606001604052808473ffffffffffffffffffffffffffffffffffffffff16815260200183815260200182815250600460008573ffffffffffffffffffffffffffffffffffffffff1673ffffffffffffffffffffffffffffffffffffffff16815260200190815260200160002060008201518160000160006101000a81548173ffffffffffffffffffffffffffffffffffffffff021916908373ffffffffffffffffffffffffffffffffffffffff1602179055506020820151816001019081610ab391906119ef565b506040820151816002019081610ac991906119ef565b509050506005839080600181540180825580915050600190039060005260206000200160009091909190916101000a81548173ffffffffffffffffffffffffffffffffffffffff021916908373ffffffffffffffffffffffffffffffffffffffff160217905550505050565b60005481565b6000543414610b7f576040517f08c379a0000000000000000000000000000000000000000000000000000000008152600401610b7690611b0d565b60405180910390fd5b600160008281526020019081526020016000206003016000815480929190610ba6906115eb565b9190505550600180600083815260200190815260200160002060050160003373ffffffffffffffffffffffffffffffffffffffff1673ffffffffffffffffffffffffffffffffffffffff16815260200190815260200160002060006101000a81548160ff021916908315150217905550600360009054906101000a900473ffffffffffffffffffffffffffffffffffffffff1673ffffffffffffffffffffffffffffffffffffffff166108fc349081150290604051600060405180830381858888f19350505050158015610c7e573d6000803e3d6000fd5b5050565b6060600060058054905067ffffffffffffffff811115610ca557610ca4611206565b5b604051908082528060200260200182016040528015610cde57816020015b610ccb610f2c565b815260200190600190039081610cc35790505b50905060005b600580549050811015610f24576004600060058381548110610d0957610d08611b2d565b5b9060005260206000200160009054906101000a900473ffffffffffffffffffffffffffffffffffffffff1673ffffffffffffffffffffffffffffffffffffffff1673ffffffffffffffffffffffffffffffffffffffff1681526020019081526020016000206040518060600160405290816000820160009054906101000a900473ffffffffffffffffffffffffffffffffffffffff1673ffffffffffffffffffffffffffffffffffffffff1673ffffffffffffffffffffffffffffffffffffffff168152602001600182018054610ddf90611662565b80601f0160208091040260200160405190810160405280929190818152602001828054610e0b90611662565b8015610e585780601f10610e2d57610100808354040283529160200191610e58565b820191906000526020600020905b815481529060010190602001808311610e3b57829003601f168201915b50505050508152602001600282018054610e7190611662565b80601f0160208091040260200160405190810160405280929190818152602001828054610e9d90611662565b8015610eea5780601f10610ebf57610100808354040283529160200191610eea565b820191906000526020600020905b815481529060010190602001808311610ecd57829003601f168201915b505050505081525050828281518110610f0657610f05611b2d565b5b60200260200101819052508080610f1c906115eb565b915050610ce4565b508091505090565b6040518060600160405280600073ffffffffffffffffffffffffffffffffffffffff16815260200160608152602001606081525090565b6000604051905090565b600080fd5b600080fd5b6000819050919050565b610f8a81610f77565b8114610f9557600080fd5b50565b600081359050610fa781610f81565b92915050565b600060208284031215610fc357610fc2610f6d565b5b6000610fd184828501610f98565b91505092915050565b610fe381610f77565b82525050565b600073ffffffffffffffffffffffffffffffffffffffff82169050919050565b600061101482610fe9565b9050919050565b61102481611009565b82525050565b60008115159050919050565b61103f8161102a565b82525050565b600060a08201905061105a6000830188610fda565b611067602083018761101b565b6110746040830186610fda565b6110816060830185610fda565b61108e6080830184611036565b9695505050505050565b60006020820190506110ad6000830184610fda565b92915050565b60006020820190506110c8600083018461101b565b92915050565b6110d781611009565b81146110e257600080fd5b50565b6000813590506110f4816110ce565b92915050565b6000602082840312156111105761110f610f6d565b5b600061111e848285016110e5565b91505092915050565b600081519050919050565b600082825260208201905092915050565b60005b83811015611161578082015181840152602081019050611146565b60008484015250505050565b6000601f19601f8301169050919050565b600061118982611127565b6111938185611132565b93506111a3818560208601611143565b6111ac8161116d565b840191505092915050565b60006060820190506111cc600083018661101b565b81810360208301526111de818561117e565b905081810360408301526111f2818461117e565b9050949350505050565b600080fd5b600080fd5b7f4e487b7100000000000000000000000000000000000000000000000000000000600052604160045260246000fd5b61123e8261116d565b810181811067ffffffffffffffff8211171561125d5761125c611206565b5b80604052505050565b6000611270610f63565b905061127c8282611235565b919050565b600067ffffffffffffffff82111561129c5761129b611206565b5b6112a58261116d565b9050602081019050919050565b82818337600083830152505050565b60006112d46112cf84611281565b611266565b9050828152602081018484840111156112f0576112ef611201565b5b6112fb8482856112b2565b509392505050565b600082601f830112611318576113176111fc565b5b81356113288482602086016112c1565b91505092915050565b60008060006060848603121561134a57611349610f6d565b5b6000611358868287016110e5565b935050602084013567ffffffffffffffff81111561137957611378610f72565b5b61138586828701611303565b925050604084013567ffffffffffffffff8111156113a6576113a5610f72565b5b6113b286828701611303565b9150509250925092565b600081519050919050565b600082825260208201905092915050565b6000819050602082019050919050565b6113f181611009565b82525050565b600082825260208201905092915050565b600061141382611127565b61141d81856113f7565b935061142d818560208601611143565b6114368161116d565b840191505092915050565b600060608301600083015161145960008601826113e8565b50602083015184820360208601526114718282611408565b9150506040830151848203604086015261148b8282611408565b9150508091505092915050565b60006114a48383611441565b905092915050565b6000602082019050919050565b60006114c4826113bc565b6114ce81856113c7565b9350836020820285016114e0856113d8565b8060005b8581101561151c57848403895281516114fd8582611498565b9450611508836114ac565b925060208a019950506001810190506114e4565b50829750879550505050505092915050565b6000602082019050818103600083015261154881846114b9565b905092915050565b7f4d75737420706179206578616374207570766f74652066656500000000000000600082015250565b6000611586601983611132565b915061159182611550565b602082019050919050565b600060208201905081810360008301526115b581611579565b9050919050565b7f4e487b7100000000000000000000000000000000000000000000000000000000600052601160045260246000fd5b60006115f682610f77565b91507fffffffffffffffffffffffffffffffffffffffffffffffffffffffffffffffff8203611628576116276115bc565b5b600182019050919050565b7f4e487b7100000000000000000000000000000000000000000000000000000000600052602260045260246000fd5b6000600282049050600182168061167a57607f821691505b60208210810361168d5761168c611633565b5b50919050565b7f506f7374206e6f7420666c6167676564206173207363616d0000000000000000600082015250565b60006116c9601883611132565b91506116d482611693565b602082019050919050565b600060208201905081810360008301526116f8816116bc565b9050919050565b7f596f75206469646e277420646f776e766f746500000000000000000000000000600082015250565b6000611735601383611132565b9150611740826116ff565b602082019050919050565b6000602082019050818103600083015261176481611728565b9050919050565b7f496e76616c69642077616c6c6574206164647265737300000000000000000000600082015250565b60006117a1601683611132565b91506117ac8261176b565b602082019050919050565b600060208201905081810360008301526117d081611794565b9050919050565b7f43726561746f7220616c72656164792065786973747300000000000000000000600082015250565b600061180d601683611132565b9150611818826117d7565b602082019050919050565b6000602082019050818103600083015261183c81611800565b9050919050565b60008190508160005260206000209050919050565b60006020601f8301049050919050565b600082821b905092915050565b6000600883026118a57fffffffffffffffffffffffffffffffffffffffffffffffffffffffffffffffff82611868565b6118af8683611868565b95508019841693508086168417925050509392505050565b6000819050919050565b60006118ec6118e76118e284610f77565b6118c7565b610f77565b9050919050565b6000819050919050565b611906836118d1565b61191a611912826118f3565b848454611875565b825550505050565b600090565b61192f611922565b61193a8184846118fd565b505050565b5b8181101561195e57611953600082611927565b600181019050611940565b5050565b601f8211156119a35761197481611843565b61197d84611858565b8101602085101561198c578190505b6119a061199885611858565b83018261193f565b50505b505050565b600082821c905092915050565b60006119c6600019846008026119a8565b1980831691505092915050565b60006119df83836119b5565b9150826002028217905092915050565b6119f882611127565b67ffffffffffffffff811115611a1157611a10611206565b5b611a1b8254611662565b611a26828285611962565b600060209050601f831160018114611a595760008415611a47578287015190505b611a5185826119d3565b865550611ab9565b601f198416611a6786611843565b60005b82811015611a8f57848901518255600182019150602085019450602081019050611a6a565b86831015611aac5784890151611aa8601f8916826119b5565b8355505b6001600288020188555050505b505050505050565b7f4d7573742070617920657861637420646f776e766f7465206665650000000000600082015250565b6000611af7601b83611132565b9150611b0282611ac1565b602082019050919050565b60006020820190508181036000830152611b2681611aea565b9050919050565b7f4e487b7100000000000000000000000000000000000000000000000000000000600052603260045260246000fdfea2646970667358221220965d55dd579a78c2d5ce0dd26cdf746d02721ca70aad92c51ff186ba2b6db80564736f6c63430008140033",
  "linkReferences": {},
  "deployedLinkReferences": {}
}